{
    "contractName": "Allowance",
    "abi": [
        {
            "anonymous": false,
            "inputs": [
                {
                    "indexed": true,
                    "internalType": "address",
                    "name": "_forWho",
                    "type": "address"
                },
                {
                    "indexed": true,
                    "internalType": "address",
                    "name": "_fromWho",
                    "type": "address"
                },
                {
                    "indexed": false,
                    "internalType": "uint256",
                    "name": "_oldAmount",
                    "type": "uint256"
                },
                {
                    "indexed": false,
                    "internalType": "uint256",
                    "name": "_newAmount",
                    "type": "uint256"
                }
            ],
            "name": "AllowanceChanged",
            "type": "event"
        },
        {
            "anonymous": false,
            "inputs": [
                {
                    "indexed": true,
                    "internalType": "address",
                    "name": "previousOwner",
                    "type": "address"
                },
                {
                    "indexed": true,
                    "internalType": "address",
                    "name": "newOwner",
                    "type": "address"
                }
            ],
            "name": "OwnershipTransferred",
            "type": "event"
        },
        {
            "inputs": [
                {
                    "internalType": "address",
                    "name": "_who",
                    "type": "address"
                },
                {
                    "internalType": "uint256",
                    "name": "_amount",
                    "type": "uint256"
                }
            ],
            "name": "addAllowance",
            "outputs": [],
            "stateMutability": "nonpayable",
            "type": "function"
        },
        {
            "inputs": [
                {
                    "internalType": "address",
                    "name": "",
                    "type": "address"
                }
            ],
            "name": "allowance",
            "outputs": [
                {
                    "internalType": "uint256",
                    "name": "",
                    "type": "uint256"
                }
            ],
            "stateMutability": "view",
            "type": "function"
        },
        {
            "inputs": [],
            "name": "owner",
            "outputs": [
                {
                    "internalType": "address",
                    "name": "",
                    "type": "address"
                }
            ],
            "stateMutability": "view",
            "type": "function"
        },
        {
            "inputs": [],
            "name": "renounceOwnership",
            "outputs": [],
            "stateMutability": "nonpayable",
            "type": "function"
        },
        {
            "inputs": [
                {
                    "internalType": "address",
                    "name": "newOwner",
                    "type": "address"
                }
            ],
            "name": "transferOwnership",
            "outputs": [],
            "stateMutability": "nonpayable",
            "type": "function"
        }
    ],
    "bytecode": "608060405234801561001057600080fd5b50600080546001600160a01b031916339081178255604051909182917f8be0079c531659141344cd1fd0a4f28419497f9722a3daafe3b4186f6b6457e0908290a35061040f806100616000396000f3fe608060405234801561001057600080fd5b50600436106100575760003560e01c80633e5beab91461005c578063715018a61461008f5780638da5cb5b14610099578063f2fde38b146100b4578063f3c40c4b146100c7575b600080fd5b61007c61006a36600461033d565b60016020526000908152604090205481565b6040519081526020015b60405180910390f35b6100976100da565b005b6000546040516001600160a01b039091168152602001610086565b6100976100c236600461033d565b610157565b6100976100d5366004610357565b610241565b6000546001600160a01b0316331461010d5760405162461bcd60e51b815260040161010490610380565b60405180910390fd5b600080546040516001600160a01b03909116907f8be0079c531659141344cd1fd0a4f28419497f9722a3daafe3b4186f6b6457e0908390a3600080546001600160a01b0319169055565b6000546001600160a01b031633146101815760405162461bcd60e51b815260040161010490610380565b6001600160a01b0381166101e65760405162461bcd60e51b815260206004820152602660248201527f4f776e61626c653a206e6577206f776e657220697320746865207a65726f206160448201526564647265737360d01b6064820152608401610104565b600080546040516001600160a01b03808516939216917f8be0079c531659141344cd1fd0a4f28419497f9722a3daafe3b4186f6b6457e091a3600080546001600160a01b0319166001600160a01b0392909216919091179055565b6000546001600160a01b0316331461026b5760405162461bcd60e51b815260040161010490610380565b6001600160a01b0382166000818152600160205260409020543391907f3691d1a86d99355e52b689ca70a7bdf6d80763237a6aa06e5fa43964eac7244b906102b3818661030e565b6040805192835260208301919091520160405180910390a36001600160a01b0382166000908152600160205260409020546102ee908261030e565b6001600160a01b0390921660009081526001602052604090209190915550565b600061031a82846103b5565b9392505050565b80356001600160a01b038116811461033857600080fd5b919050565b60006020828403121561034e578081fd5b61031a82610321565b60008060408385031215610369578081fd5b61037283610321565b946020939093013593505050565b6020808252818101527f4f776e61626c653a2063616c6c6572206973206e6f7420746865206f776e6572604082015260600190565b600082198211156103d457634e487b7160e01b81526011600452602481fd5b50019056fea26469706673582212204157b45cb2676d0fd04aca3f0d7c3227f5588bd94cc4c0d84861be4afa7b0f3b64736f6c63430008030033",
    "sourcePath": "/Users/michaeldaigler/Desktop/SmartWalletChallenge/Allowance.sol",
    "compiler": {
        "name": "solc",
        "version": "0.8.3+commit.8d00100c"
    },
    "functionHashes": {
        "addAllowance(address,uint256)": "f3c40c4b",
        "allowance(address)": "3e5beab9",
        "owner()": "8da5cb5b",
        "renounceOwnership()": "715018a6",
        "transferOwnership(address)": "f2fde38b"
    },
    "gasEstimates": {
        "creation": {
            "codeDepositCost": "207800",
            "executionCost": "22624",
            "totalCost": "230424"
        },
        "external": {
            "addAllowance(address,uint256)": "infinite",
            "allowance(address)": "1186",
            "owner()": "1023",
            "renounceOwnership()": "24165",
            "transferOwnership(address)": "24444"
        },
        "internal": {
            "reduceAllowance(address,uint256)": "infinite"
        }
    }
}