{
    "contractName": "SharedWallet",
    "abi": [
        {
            "anonymous": false,
            "inputs": [
                {
                    "indexed": true,
                    "internalType": "address",
                    "name": "_forWho",
                    "type": "address"
                },
                {
                    "indexed": true,
                    "internalType": "address",
                    "name": "_fromWho",
                    "type": "address"
                },
                {
                    "indexed": false,
                    "internalType": "uint256",
                    "name": "_oldAmount",
                    "type": "uint256"
                },
                {
                    "indexed": false,
                    "internalType": "uint256",
                    "name": "_newAmount",
                    "type": "uint256"
                }
            ],
            "name": "AllowanceChanged",
            "type": "event"
        },
        {
            "anonymous": false,
            "inputs": [
                {
                    "indexed": true,
                    "internalType": "address",
                    "name": "_beneficiaryy",
                    "type": "address"
                },
                {
                    "indexed": false,
                    "internalType": "uint256",
                    "name": "_amount",
                    "type": "uint256"
                }
            ],
            "name": "MoneyReceived",
            "type": "event"
        },
        {
            "anonymous": false,
            "inputs": [
                {
                    "indexed": true,
                    "internalType": "address",
                    "name": "_from",
                    "type": "address"
                },
                {
                    "indexed": false,
                    "internalType": "uint256",
                    "name": "_amount",
                    "type": "uint256"
                }
            ],
            "name": "MoneySent",
            "type": "event"
        },
        {
            "anonymous": false,
            "inputs": [
                {
                    "indexed": true,
                    "internalType": "address",
                    "name": "previousOwner",
                    "type": "address"
                },
                {
                    "indexed": true,
                    "internalType": "address",
                    "name": "newOwner",
                    "type": "address"
                }
            ],
            "name": "OwnershipTransferred",
            "type": "event"
        },
        {
            "inputs": [
                {
                    "internalType": "address",
                    "name": "_who",
                    "type": "address"
                },
                {
                    "internalType": "uint256",
                    "name": "_amount",
                    "type": "uint256"
                }
            ],
            "name": "addAllowance",
            "outputs": [],
            "stateMutability": "nonpayable",
            "type": "function"
        },
        {
            "inputs": [
                {
                    "internalType": "address",
                    "name": "",
                    "type": "address"
                }
            ],
            "name": "allowance",
            "outputs": [
                {
                    "internalType": "uint256",
                    "name": "",
                    "type": "uint256"
                }
            ],
            "stateMutability": "view",
            "type": "function"
        },
        {
            "inputs": [],
            "name": "owner",
            "outputs": [
                {
                    "internalType": "address",
                    "name": "",
                    "type": "address"
                }
            ],
            "stateMutability": "view",
            "type": "function"
        },
        {
            "inputs": [],
            "name": "recieve",
            "outputs": [],
            "stateMutability": "payable",
            "type": "function"
        },
        {
            "inputs": [],
            "name": "renounceOwnership",
            "outputs": [],
            "stateMutability": "nonpayable",
            "type": "function"
        },
        {
            "inputs": [
                {
                    "internalType": "address",
                    "name": "newOwner",
                    "type": "address"
                }
            ],
            "name": "transferOwnership",
            "outputs": [],
            "stateMutability": "nonpayable",
            "type": "function"
        },
        {
            "inputs": [
                {
                    "internalType": "address payable",
                    "name": "_to",
                    "type": "address"
                },
                {
                    "internalType": "uint256",
                    "name": "_amount",
                    "type": "uint256"
                }
            ],
            "name": "withDrawFunds",
            "outputs": [],
            "stateMutability": "nonpayable",
            "type": "function"
        }
    ],
    "bytecode": "608060405234801561001057600080fd5b50600080546001600160a01b031916339081178255604051909182917f8be0079c531659141344cd1fd0a4f28419497f9722a3daafe3b4186f6b6457e0908290a350610728806100616000396000f3fe6080604052600436106100705760003560e01c80638da5cb5b1161004e5780638da5cb5b146100ec578063a9e10bf214610114578063f2fde38b1461011c578063f3c40c4b1461013c57610070565b80630555611e146100755780633e5beab914610097578063715018a6146100d7575b600080fd5b34801561008157600080fd5b50610095610090366004610623565b61015c565b005b3480156100a357600080fd5b506100c46100b2366004610607565b60016020526000908152604090205481565b6040519081526020015b60405180910390f35b3480156100e357600080fd5b506100956102fe565b3480156100f857600080fd5b506000546040516001600160a01b0390911681526020016100ce565b610095610372565b34801561012857600080fd5b50610095610137366004610607565b6103a9565b34801561014857600080fd5b5061009561015736600461064e565b610493565b80336101706000546001600160a01b031690565b6001600160a01b031614806101945750336000908152600160205260409020548111155b6101de5760405162461bcd60e51b8152602060048201526016602482015275165bdd48185c99481b9bdd08185b1b1bddd95908161160521b60448201526064015b60405180910390fd5b478211156102545760405162461bcd60e51b815260206004820152603760248201527f546865726520617265206e6f7420656e6f7567682066756e64732073746f726560448201527f6420696e2074686520736d61727420636f6e747261637400000000000000000060648201526084016101d5565b336102676000546001600160a01b031690565b6001600160a01b03161461027f5761027f3383610560565b826001600160a01b03167f7f51d406915971d4ac1c91af96be5187ea6ab64753785aad519a533def80a41e836040516102ba91815260200190565b60405180910390a26040516001600160a01b0384169083156108fc029084906000818181858888f193505050501580156102f8573d6000803e3d6000fd5b50505050565b6000546001600160a01b031633146103285760405162461bcd60e51b81526004016101d590610660565b600080546040516001600160a01b03909116907f8be0079c531659141344cd1fd0a4f28419497f9722a3daafe3b4186f6b6457e0908390a3600080546001600160a01b0319169055565b60405134815233907f27b15ed4cf832749ed39f33a64e4707ed60a761485e41ffec7343ecaddc0c02a9060200160405180910390a2565b6000546001600160a01b031633146103d35760405162461bcd60e51b81526004016101d590610660565b6001600160a01b0381166104385760405162461bcd60e51b815260206004820152602660248201527f4f776e61626c653a206e6577206f776e657220697320746865207a65726f206160448201526564647265737360d01b60648201526084016101d5565b600080546040516001600160a01b03808516939216917f8be0079c531659141344cd1fd0a4f28419497f9722a3daafe3b4186f6b6457e091a3600080546001600160a01b0319166001600160a01b0392909216919091179055565b6000546001600160a01b031633146104bd5760405162461bcd60e51b81526004016101d590610660565b6001600160a01b0382166000818152600160205260409020543391907f3691d1a86d99355e52b689ca70a7bdf6d80763237a6aa06e5fa43964eac7244b9061050581866105e8565b6040805192835260208301919091520160405180910390a36001600160a01b03821660009081526001602052604090205461054090826105e8565b6001600160a01b0390921660009081526001602052604090209190915550565b6001600160a01b0382166000818152600160205260409020543391907f3691d1a86d99355e52b689ca70a7bdf6d80763237a6aa06e5fa43964eac7244b906105a881866105fb565b6040805192835260208301919091520160405180910390a36001600160a01b0382166000908152600160205260409020546105e390826105fb565b505050565b60006105f48284610695565b9392505050565b60006105f482846106ad565b600060208284031215610618578081fd5b81356105f4816106da565b60008060408385031215610635578081fd5b8235610640816106da565b946020939093013593505050565b60008060408385031215610635578182fd5b6020808252818101527f4f776e61626c653a2063616c6c6572206973206e6f7420746865206f776e6572604082015260600190565b600082198211156106a8576106a86106c4565b500190565b6000828210156106bf576106bf6106c4565b500390565b634e487b7160e01b600052601160045260246000fd5b6001600160a01b03811681146106ef57600080fd5b5056fea264697066735822122049b7bba2323331515fed9a2712c50b847cb0e6781cd16e6a6a9e667e62e657ae64736f6c63430008030033",
    "sourcePath": "/Users/michaeldaigler/Desktop/SmartWalletChallenge/SmartWallet.sol",
    "compiler": {
        "name": "solc",
        "version": "0.8.3+commit.8d00100c"
    },
    "functionHashes": {
        "addAllowance(address,uint256)": "f3c40c4b",
        "allowance(address)": "3e5beab9",
        "owner()": "8da5cb5b",
        "recieve()": "a9e10bf2",
        "renounceOwnership()": "715018a6",
        "transferOwnership(address)": "f2fde38b",
        "withDrawFunds(address,uint256)": "0555611e"
    },
    "gasEstimates": {
        "creation": {
            "codeDepositCost": "366400",
            "executionCost": "22778",
            "totalCost": "389178"
        },
        "external": {
            "addAllowance(address,uint256)": "infinite",
            "allowance(address)": "1225",
            "owner()": "1001",
            "recieve()": "1578",
            "renounceOwnership()": "24210",
            "transferOwnership(address)": "24438",
            "withDrawFunds(address,uint256)": "infinite"
        }
    }
}